:100000000C945F000C9471000C9471000C947100BE
:100010000C9471000C9471000C9471000C9471009C
:100020000C9471000C9471000C94A1000C94C60007
:100030000C9471000C9471000C9471000C9471007C
:100040000C9471000C9471000C9471000C9471006C
:100050000C9471000C9471000C9471000C9471005C
:100060000C9471000C9471000C9471000C9471004C
:100070000C9471000C9471000C9471000C9471003C
:100080000C9471000C9471000C9471000C9471002C
:100090000C9471000C9471000C9471000C9471001C
:1000A0000C9471000C9471000C9471001201000208
:1000B00000000040EB03F42F0100000000011124B8
:1000C0001FBECFEFDAE0DEBFCDBF21E0A0E0B1E0A0
:1000D00001C01D92A130B207E1F70E9473000C9499
:1000E0001E010C9400000E947600FFCFF8948091CE
:1000F000D70081608093D70089B5826189BD09B43A
:1001000000FEFDCF8091D80080698093D800809157
:10011000D8008F7D8093D8008091E0008B7F809302
:10012000E0008091E0008E7F8093E0008091E2000B
:100130008C608093E20010920001789480E090E05F
:1001400008951F921FB61F9211248F938091E10092
:100150001092E10083FF15C01092E9008091EB003E
:1001600081608093EB001092EC0082E38093ED00BD
:100170008091EE0087FF05C08091F0008860809339
:10018000F0008F911F901FBE1F9018951F921FB6F1
:100190001F9211248F931092E9008091E80083FF51
:1001A00015C08091F1008091F1008091F100809163
:1001B000F1008091F1008091F1008091F100809137
:1001C000F1008091E800827F8093E8008F911F907A
:1001D0001FBE1F9018958093E90008958091E80054
:1001E000887090E00895FC018381813011F081E0F6
:1001F0000895ECEAF0E024918091E8008570E1F345
:100200008091E80082FD18C0A0E0B0E0CD01821727
:100210009105A105B10534F08091E8008E7F8093AF
:10022000E800E5CFFC01E455FF4FE491E093F100D5
:100230000196A11DB11DEBCF80E00895F894FFCF8A
:00000001FF
